:1000000017C1000046C1000044C1000042C1000009
:1000100040C100003EC100003CC100003AC10000E8
:1000200038C1000036C1000034C1000032C10000F8
:1000300030C100002EC100002CC100002AC1000008
:1000400028C1000026C1000024C1000022C1000018
:1000500020C100001EC100001CC100000C94AC0EA9
:1000600018C100000C94200F0C94F60E12C1000071
:1000700010C100000EC100000CC100000AC1000048
:1000800008C1000006C1000004C1000002C1000058
:1000900000C10000FEC00000FCC00000EDC3000075
:1000A000F8C00000F6C00000F4C00000F2C000007C
:1000B000F0C00000EEC00000ECC00000EAC000008C
:1000C000E8C00000E6C00000E4C00000E2C000009C
:1000D000E0C00000DEC00000DCC00000DAC00000AC
:1000E000D8C000000D021102150219021D022102E2
:1000F00025025903600367036E0375038D037C03B8
:100100008D038303E90DEC0DDB0DDF0DE30D230EF5
:10011000F00DF40DFA0DFE0D020E080E0C0E100E71
:10012000230E160E1A0E1E0E0000210024002700BA
:100130002A002D00300033000101000004010701F6
:100140000A0100002200250028002B002E003100AB
:10015000340002010000050108010B010505050539
:10016000070508080808020202020A0A080804042F
:10017000040401010101010101010303030303035D
:100180000303040707070C0C0C0C0C0C0C0C0202EC
:10019000020206060606060606060B0B0B0B0B0BE9
:1001A0000B0B010210202008081020401020408076
:1001B000020102010804020101020408102040802B
:1001C00080402010080402018004020180402010B9
:1001D0000804020108040201010204081020408002
:1001E000010204081020408000000A0B02090C0DD7
:1001F0000E080703040100000000000000000000DA
:1002000000000000000000000000000000000000EE
:1002100000000000121110000000000000000000AB
:100220000000000000000000000000000000591362
:1002300011241FBECFEFD1E2DEBFCDBF00E00CBF67
:1002400012E0A0E0B2E0E8E2FFE200E00BBF02C093
:1002500007900D92AA37B107D9F725E0AAE7B2E0D7
:1002600001C01D92AF30B207E1F711E0C8E1D1E063
:1002700000E006C021970109802FFE010E9465164B
:10028000C731D10780E00807A9F70E940B120C9430
:100290009217B6CEFC01918D228D892F90E0805C63
:1002A0009F4F821B91098F739927089580E090E0FA
:1002B000892B21F00E94EA0B811125C080E090E09B
:1002C000892B41F080E090E0892B21F00E94000012
:1002D00081111CC080E090E0892B41F080E090E02B
:1002E000892B21F00E940000811113C080E090E072
:1002F000892BA1F080E090E0892B81F00E94000022
:1003000081110AC008950E940000D8CF0E94000009
:10031000E1CF0E940000EACF0C940000089585ED23
:100320008093BC008091BC0084FDFCCF1092C00281
:10033000089540919C02262F30E0240F311D213278
:100340003105DCF42091C0022430C9F4FC0180E0C6
:1003500090E0861758F430919C022191DC01A4585A
:10036000BD4FA30FB11D2C930196F3CF80919C023A
:10037000680F60939C0280E0089581E0089582E018
:10038000089508958FEF9FEF08958FEF9FEF0895E1
:1003900080917B0290E09195819591090895CF938A
:1003A000DF93CB01EA01642FC4DFCE01DF91CF914F
:1003B0000895CF93DF931F92CDB7DEB7698361E0D5
:1003C000CE010196B6DF81E090E00F90DF91CF91F2
:1003D0000895089580E090E008958EBD00000DB46A
:1003E00007FEFDCF8EB50895CF93DF93DC014770F4
:1003F000552766277727FA013197CD91DC91119720
:10040000E730F10530F48827EE58FF4F8F4F0C94FA
:100410006516EC81FD8161E01BC0EC81FD8165E02A
:1004200017C0EC81FD8164E013C0EC81FD8166E0C2
:100430000FC0EC81FD8162E00BC0EC81FD816AE0C0
:1004400007C0EC81FD8168E003C0EC81FD8169E0BB
:10045000CD01DF91CF911994CF93DF93EC01CB01C4
:10046000BA0126E030E040E050E00E9449166230D8
:1004700071058105910559F18CF4611571058105AE
:100480009105F1F06130710581059105C1F5E881B3
:10049000F9810480F581E02D65E02DC0643071059F
:1004A0008105910511F1D4F0653071058105910543
:1004B00031F5E881F9810480F581E02D66E01BC00B
:1004C000E881F9810480F581E02D64E014C0E881C1
:1004D000F9810480F581E02D61E00DC0E881F981AA
:1004E0000480F581E02D63E006C0E881F981048095
:1004F000F581E02D62E0CE01DF91CF911994DF917B
:10050000CF9108954370552766277727DC01ED9139
:10051000FC910480F581E02D4230510561057105A3
:1005200071F0433051056105710559F041305105B5
:100530006105710511F065E005C066E003C06AE081
:1005400001C069E01994CF93DF93EC01CB01BA01AC
:1005500023E030E040E050E00E9449166130710530
:100560008105910581F0623071058105910591F059
:10057000672B682B692BC1F4E881F9810480F58130
:10058000E02D64E00DC0E881F9810480F581E02D63
:1005900061E006C0E881F9810480F581E02D62E028
:1005A000CE01DF91CF911994DF91CF9108954370DF
:1005B000552766277727DC01ED91FC910480F581B2
:1005C000E02D423051056105710571F04330510550
:1005D0006105710559F0413051056105710511F052
:1005E00062E005C063E003C061E001C060E019940F
:1005F000CF93DF93EC01E881F9810480F581E02D50
:100600008A81811102C060E001C062E0CE011995CB
:10061000E881F9810480F581E02D8A81811102C091
:1006200061E001C063E0CE0119958AAD9BAD8230D7
:10063000910538F0880F991F880F991F059701972A
:10064000F1F7E881F9810480F581E02D8A8181113B
:1006500002C060E001C062E0CE01DF91CF91199449
:10066000CF93DF93EC0120E030E0A9016AA17BA1E8
:100670008CA19DA10E94691518161CF4EEADFFAD6A
:1006800004C0C05CDF4FE881F981DF91CF911994FC
:100690000F931F93DC0115960C91159710E009300C
:1006A0001105D8F5F8018827E758FF4F8F4F0C94B4
:1006B0006516ED91FC9111970084F185E02D29C01C
:1006C000ED91FC9111970284F385E02D22C0ED910C
:1006D000FC9111970484F585E02D1BC0ED91FC91F0
:1006E00011970684F785E02D14C0ED91FC911197C8
:1006F0000088F189E02D0DC0ED91FC9111970288E1
:10070000F389E02D06C0ED91FC9111970488F589DD
:10071000E02DCD011F910F9119941F910F91089514
:10072000CF92DF92EF92FF920F931F93CF93DF93BD
:10073000EC019D81943041F0983031F0933031F0EC
:10074000963021F012E003C014E001C013E02696B9
:10075000E12CF12CC62ED12C01E0C6010E2C02C0DA
:10076000959587950A94E2F76C8180FD60278991C1
:100770000E94BA0D8FEFE81AF80AE11670F3DF91C4
:10078000CF911F910F91FF90EF90DF90CF90089540
:10079000CF93DF93FC012581222359F1EC0161E025
:1007A00086810E94380E61E08F810E94380E8D8113
:1007B000843011F0883039F461E088850E94380E69
:1007C00061E0898506C0833011F0863021F461E054
:1007D00088850E94380E8DAD8F3F59F061E00E94F0
:1007E000380E6CAD81E068278DADDF91CF910C9410
:1007F000BA0DDF91CF910895CF93DF93FC0125814E
:100800002223A9F0EC010190F081E02D0480F58114
:10081000E02D60E019958DAD8F3F49F061E00E94B9
:10082000380E6CAD8DADDF91CF910C94BA0DDF9188
:10083000CF910895FC01848DDF01A80FB11DA35A4B
:10084000BF4F2C91848D90E001968F739927848FF0
:10085000A689B7892C93A089B1898C918370806413
:100860008C93938D848D981306C00288F389E02DB4
:1008700080818F7D808308951F920F920FB60F9213
:1008800011240BB60F922F933F934F935F936F9367
:100890007F938F939F93AF93BF93EF93FF93809139
:1008A000B900887F803609F49CC068F5883209F465
:1008B0005BC090F4803109F454C038F4882309F403
:1008C000F2C0883009F44DC0F1C0883109F44CC041
:1008D000803209F45DC0EAC0803409F468C048F48D
:1008E000803309F455C0883309F0E0C08093BF021B
:1008F000D4C0803509F44FC0883509F45DC0883410
:1009000009F0D4C0D2C0883909F4C3C0A8F488372C
:1009100009F467C038F4883609F463C0803709F4F5
:1009200060C0C4C0883809F4B4C0803909F45FC01D
:10093000803809F0BBC05BC0803B09F484C038F448
:10094000803A09F466C0883A09F47DC0AFC0803CA3
:1009500009F4A3C0883C09F4A0C0883B09F486C010
:10096000A5C08091E50210C09091E4028091E3025D
:10097000981770F5E091E40281E08E0F8093E40215
:10098000F0E0ED53FD4F80818093BB0085EC82C089
:100990008093BF028AC0E091E40281E08E0F8093D1
:1009A000E4028091BB00F0E0ED53FD4F8083909115
:1009B000E4028091E3026AC0E091E40281E08E0FDC
:1009C0008093E4028091BB00F0E0ED53FD4F808303
:1009D0008091C202811169C081E08093C10284EAE2
:1009E0005DC083E08093C0021092BE02CFCF8091A1
:1009F000BE02803208F04DC0E091BE0281E08E0F51
:100A00008093BE028091BB00F0E0E256FD4F8083F0
:100A1000BDCF85EC8093BC001092C0028091BE02D5
:100A2000803230F4E091BE02F0E0E256FD4F1082D9
:100A30006091BE0270E08EE992E0E0E0F0E019958E
:100A40001092BE0233C084E08093C00210929D02D7
:100A500010929C02E0E0F0E0199580919C028111D7
:100A600005C081E080939C0210927C02E0919D027F
:100A700081E08E0F80939D02F0E0E458FD4F80816D
:100A80008093BB0090919D0280919C02981708F47E
:100A90007DCF85E88093BC0009C085EC8093BC00C5
:100AA0001092C00203C01092BF0239DCFF91EF9197
:100AB000BF91AF919F918F917F916F915F914F9176
:100AC0003F912F910F900BBE0F900FBE0F901F9074
:100AD00018951F93CF93DF93EC01162FF89460E0E5
:100AE000812F0E94BA0D80E678DC80E076DC888376
:100AF00080E073DC898380E070DC8A8380E06DDCD9
:100B00008B8361E0812F0E94BA0D688170E0762F9F
:100B100066278981680F711DCB01770FAA0BBB0B6C
:100B2000BA2FA92F982F88272A81820F911DA11DE6
:100B3000B11DBA2FA92F982F88272B81BC01CD0179
:100B4000620F711D811D911D7894DF91CF911F91CE
:100B50000895CF93C62F60E08C2F0E94BA0D88E9CC
:100B60003CDC80E03ADC80E038DC80E036DC80E0B1
:100B700034DC61E08C2FFED78BE891E00197F1F730
:100B800060E08C2FF7D780EE28DC61E08C2FCF91CE
:100B9000F1C7CF93DF93EC0161E08D81EBD760E08B
:100BA0008D81E8D788E819DC83E017DC61E08D816E
:100BB000E1D76D817E81CE01DF91CF91CACFCF92F7
:100BC000DF92EF92FF92CF93DF93EC010E94870EAA
:100BD0006B017C018EA99FA9A8ADB9ADB701A60193
:100BE000481B590B6A0B7B0B8AA99BA9ACA9BDA911
:100BF000481759076A077B0718F12A818E859F8558
:100C0000A889B989222321F00196A11DB11D03C035
:100C10000197A109B1098E879F87A88BB98B4E8553
:100C20005F8568897989E881F9810680F781E02DFF
:100C3000CE011995CEAADFAAE8AEF9AE81E001C0D7
:100C400080E0DF91CF91FF90EF90DF90CF900895FB
:100C50004F925F926F927F92AF92BF92CF92DF924C
:100C6000EF92FF920F931F93CF93DF93EC015A0102
:100C70008B019A01AB016AA17BA18CA19DA10E946D
:100C80001A14882309F44CC0CEA0DFA0E8A4F9A46C
:100C90002601370177FA709477F87094A3019201D6
:100CA000B501C8010E941A1487FD0BC0A701960167
:100CB000B501C8010E94691518162CF0650178016C
:100CC00002C07301620120E030E0A901C701B60152
:100CD0000E941A14811105C01AAA1BAA1CAA1DAAD7
:100CE0001BC0A701960160E074E284E799E40E94CA
:100CF0001E149F770E948B146AAB7BAB8CAB9DABB1
:100D000011E020E030E0A901C701B6010E94691599
:100D100018160CF010E01A83CAA2DBA2ECA2FDA206
:100D2000DF91CF911F910F91FF90EF90DF90CF90C7
:100D3000BF90AF907F906F905F904F9008952F92EB
:100D40003F924F925F926F927F928F929F92AF925B
:100D5000BF92CF92DF92EF92FF920F931F93CF93A8
:100D6000DF93EC01CE8CDF8CE8A0F9A08E859F8507
:100D7000A889B989C81AD90AEA0AFB0A6AA17BA11B
:100D80008CA19DA19B01AC010E946D154B015C01E2
:100D90006AA57BA58CA59DA59B01AC010E94B613FD
:100DA0009B01AC01C501B4010E941E140E9486146F
:100DB0008E010E5B1F4FC114D104E104F104A1F4B4
:100DC00062307105810591050CF07BC01AAA1BAA3F
:100DD0001CAA1DAA1AA21BA21CA21DA2F801108205
:100DE00011821282138201C1F80180809180A28059
:100DF000B3801C141D041E041F04FCF418141904F1
:100E00001A041B044CF46C157D058E059F054CF5EA
:100E10002A81211156C025C081149104A104B10476
:100E200009F44FC06C157D058E059F050CF049C077
:100E30008A81882309F445C037C0181419041A049C
:100E40001B04F4F48824992454018C189D08AE08DE
:100E5000BF08681579058A059B051CF42A812223A1
:100E600081F19B01AC0188279927DC01821B930B40
:100E7000A40BB50BF80180839183A283B38321C0B7
:100E800081149104A104B104E1F0442455243201F9
:100E90004C185D086E087F08641575058605970572
:100EA00084F48A8181110DC0B094A09490948094B0
:100EB000811C911CA11CB11CF80180829182A2822C
:100EC000B382F80140805180628073809E01265B6E
:100ED0003F4F19014114510461047104A9F4FE014A
:100EE000EA5BFF4F80819181A281B381F901808308
:100EF0009183A283B38381E01C141D041E041F048C
:100F00000CF080E08A8344C0F901C080D180E28087
:100F1000F380A7019601C701B6010E94B6134B01E9
:100F20005C01C301B2010E94B91420E030E040E846
:100F300050E40E946D1520E030E040E85FE30E943D
:100F4000B6139B01AC01C501B4010E941E149B01A4
:100F5000AC01C701B6010E94B5135B016C01FE0133
:100F6000E25BFF4FE080F180928083809701492D02
:100F7000582D0E94691518161CF475019C2C8D2C97
:100F8000C701A92DB82DF10180839183A283B3837A
:100F9000FFEF4F1A5F0A6F0A7F0AF8014082518201
:100FA00062827382F101C080D180E280F380C70148
:100FB000B6010E948B146AAB7BAB8CAB9DABA701D7
:100FC000960160E074E284E799E40E941E146AA32B
:100FD0007BA38CA39DA32A81211107C0DC01CB0137
:100FE000B0588AA39BA3ACA3BDA3DF91CF911F915F
:100FF0000F91FF90EF90DF90CF90BF90AF909F90B8
:101000008F907F906F905F904F903F902F900895BA
:101010004F925F926F927F928F929F92AF92BF9208
:10102000CF92DF92EF92FF920F931F93CF93DF93B4
:10103000EC016A017B0120E030E0A901C701B601A3
:101040000E941A1487FF04C0F7FAF094F7F8F0949E
:101050008AA49BA4ACA4BDA4A7019601C501B401B8
:101060000E941A14882309F452C08E010E5B1F4F90
:10107000F80160817181828193810E94B9142B01F2
:101080003C01A7019601C501B4010E941E149B01F9
:10109000AC01C301B2010E946D150E948614F801D3
:1010A0006083718382839383A701960160E070E07F
:1010B00080E090E40E941E140E94D4150C5F1F4F24
:1010C00026E53EE04DE25FE30E946D1520E034E24C
:1010D00044E759E40E946D15F801608371838283AF
:1010E0009383CAA6DBA6ECA6FDA6CE01DF91CF9125
:1010F0001F910F91FF90EF90DF90CF90BF90AF9036
:101100009F908F907F906F905F904F9018CEDF915F
:10111000CF911F910F91FF90EF90DF90CF90BF90F4
:10112000AF909F908F907F906F905F904F900895B9
:101130008F929F92AF92BF92CF92DF92EF92FF92E7
:101140001F93CF93DF93CDB7DEB7C255D1090FB64A
:10115000F894DEBF0FBECDBFE0911103F0911203F2
:1011600082E08083E0910D03F0910E031082E09104
:101170000F03F09110038FEC808310921903E0911C
:101180001503F091160386E08083E0911303F0913C
:101190001403808180618083E0911303F091140334
:1011A000808188608083E0911303F0911403808133
:1011B00080688083E0911303F091140380818F7D18
:1011C00080831FB7F89480917A02811123C0E1E9EE
:1011D000F1E08491E7EDF1E09491E82FF0E0EE0F7B
:1011E000FF1FE85DFE4FA591B491EC91E92319F43E
:1011F00061E085E3BFD461E085E33AD58CB58061D9
:101200008CBD8CB580648CBD61E084E331D561E038
:1012100083E32ED580917A028F5F80937A021FBF7D
:101220008091B0049091B104B4DC80915E049091FF
:101230005F04AFDC80910C0490910D04AADC8091D6
:10124000BA039091BB03A5DC84E492E00E94CA112A
:1012500061E086E10DD561E087E10AD561E089E1D1
:1012600007D560E086E186D461E087E183D461E060
:1012700089E180D461E08BE1FBD461E08CE1F8D4BA
:1012800061E08EE1F5D460E08BE174D461E08CE143
:1012900071D461E08EE16ED461E085E2E9D461E071
:1012A00086E2E6D461E088E2E3D460E085E262D4DD
:1012B00061E086E25FD461E088E25CD461E080E2D4
:1012C000D7D461E081E2D4D461E083E2D1D460E09C
:1012D00080E250D461E081E24DD461E083E24AD4FF
:1012E0006AE18DEA94E000D51092B70411E0109302
:1012F000B8041093E9048DEA94E04ADA1092BB0432
:101300001092BC041092BD041092BE041092CB0443
:101310001092CC041092CD041092CE041092EF04DF
:101320001092F0041092F1041092F2041092DF0473
:101330001092E0041092E1041092E2041092CF04A3
:101340001092D0041092D1041092D20449EF52E0CE
:1013500065E170E58DEA94E096D340E050E563E402
:1013600079E48DEA94E054DE6FE18BE594E0BCD43F
:101370001092650410936604109397048BE594E033
:1013800007DA1092690410926A0410926B041092AA
:101390006C041092790410927A0410927B041092DB
:1013A0007C0410929D0410929E0410929F0410924F
:1013B000A00410928D0410928E0410928F0410924B
:1013C000900410927D0410927E0410927F0410927B
:1013D000800449EF52E065E170E58BE594E053D37A
:1013E00040E050E563E479E48BE594E011DE69E2E6
:1013F00089E094E079D410921304109314041093AC
:10140000450489E094E0C4D910921704109218049E
:101410001092190410921A041092270410922804B2
:101420001092290410922A0410924B0410924C043A
:1014300010924D0410924E0410923B0410923C0402
:1014400010923D0410923E0410922B0410922C0432
:1014500010922D0410922E0449EF52E065E170E5E0
:1014600089E094E010D340E050E563E479E489E05A
:1014700094E0CEDD64E287EB93E036D41092C103B2
:101480001093C2031093F30387EB93E081D910927A
:10149000C5031092C6031092C7031092C80310929E
:1014A000D5031092D6031092D7031092D80310924E
:1014B000F9031092FA031092FB031092FC031092AE
:1014C000E9031092EA031092EB031092EC031092DE
:1014D000D9031092DA031092DB031092DC0349EF78
:1014E00052E065E170E587EB93E0CDD240E050E556
:1014F00063E479E487EB93E08BDD60E084E0B8D3CC
:1015000084E592E047D76DEA74E0CE01019657D5A5
:10151000CE010196D8D16BE574E0CE0101964FD58E
:10152000CE010196D0D169E074E0CE01019647D595
:10153000CE010196C8D167EB73E0CE0101963FD58D
:10154000CE010196C0D182E692E024D7E091B603A5
:10155000EA3068F481E08E0F8093B603F0E0EE0F7E
:10156000FF1FEE55FC4F8DEA94E091838083E0915C
:10157000B603EA3068F481E08E0F8093B603F0E0A2
:10158000EE0FFF1FEE55FC4F8BE594E091838083B7
:10159000E091B603EA3068F481E08E0F8093B603E1
:1015A000F0E0EE0FFF1FEE55FC4F89E094E09183D1
:1015B0008083E091B603EA3068F481E08E0F809377
:1015C000B603F0E0EE0FFF1FEE55FC4F87EB93E004
:1015D0009183808340E050E06AE774E48DEA94E010
:1015E00052D240E050E06AE774E48DEA94E030DBE8
:1015F00040E050E06AE774E48BE594E044D240E0D8
:1016000050E06AE774E48BE594E022DB40E050E0D0
:101610006AE774E489E094E036D240E050E06AE79B
:1016200074E489E094E014DB40E050E061EE74E49F
:1016300087EB93E028D240E050E061EE74E487EB62
:1016400093E006DB8AE990E1A0E0B0E08093F1024C
:101650009093F202A093F302B093F4028093F50208
:101660009093F602A093F702B093F8028093F902E8
:101670009093FA02A093FB02B093FC028093FD02C8
:101680009093FE02A093FF02B0930003CAD598D5B1
:101690008111FDCF3CD34B015C0184EFC82EDD24CA
:1016A000D394E12CF12C33D3DC01CB0188199909B7
:1016B000AA09BB09883E9340A105B105A0F321E02A
:1016C000C21AD108E108F10888EE880E83E0981E5E
:1016D000A11CB11CC114D104E104F10421F78FB79E
:1016E000F8944091E6025091E7026091E80270910F
:1016F000E9028FBFCE5ADF4F0FB6F894DEBF0FBEA0
:10170000CDBFDF91CF911F91FF90EF90DF90CF90F1
:10171000BF90AF909F908F900895CF92DF92EF92FD
:10172000FF920F931F93CF93DF936C017A018B018C
:10173000C0E0D0E0CE15DF0581F0D8016D918D01BC
:10174000D601ED91FC910190F081E02DC601199533
:10175000892B11F02196EECF7E01C701DF91CF9149
:101760001F910F91FF90EF90DF90CF900895FC01B3
:10177000538D448D252F30E0842F90E0821B930BF6
:10178000541710F0CF96089501970895FC01918D9C
:10179000828D981761F0828DDF01A80FB11D5D96D3
:1017A0008C91928D9F5F9F73928F90E008958FEF41
:1017B0009FEF0895FC01918D828D981731F0828DF5
:1017C000E80FF11D858D90E008958FEF9FEF08954C
:1017D0000E948E1781E093E00E944A0121E0892B4C
:1017E00009F420E0822F0895EF92FF920F931F9348
:1017F000CF93DF93EC0181E0888F9B8D8C8D9813C4
:1018000005C0E889F989808185FD26C0F62E0B8DFB
:1018100010E00F5F1F4F0F731127E02E8C8DE81221
:101820000CC00FB607FCFACFE889F989808185FFE3
:10183000F5CFCE010E941A04F1CF8B8DFE01E80F87
:10184000F11DE35AFF4FF0829FB7F8940B8FEA899E
:10185000FB89808180620AC09FB7F894EE89FF8976
:101860006083E889F98980818370806480839FBF69
:1018700081E090E0DF91CF911F910F91FF90EF9069
:101880000895CF93DF93EC01888D8823C9F0EA890E
:10189000FB89808185FD05C0A889B9898C9186FD69
:1018A0000FC00FB607FCF5CF808185FFF2CFA88966
:1018B000B9898C9185FFEDCFCE010E941A04E7CF44
:1018C000DF91CF9108950F931F93CF93DF93EC0196
:1018D0008B819C81FC01658176813BD91E8A1F8AA0
:1018E000188E198E8B819C81FC0165817681F1D8DF
:1018F0000E94B91426E636E646E650E49FD720E07B
:1019000030E040E850E40E946D1520E030E040E017
:101910005FE30E946D15FAD79B01AC0188279927D8
:10192000DC01821B930BA40BB50B8E8B9F8BA88FB6
:10193000B98F9093F0028093EF020E851F858091FE
:10194000EF029091F002A801481B590BCA0143967F
:10195000879708F04DC08B819C81FC016581768161
:10196000B8D80E94B91426E636E646E650E466D7B3
:1019700020E030E040E850E40E946D1520E030E0C7
:1019800040E05FE30E946D15C1D79B01AC01882741
:101990009927DC01821B930BA40BB50B8E8B9F8BBD
:1019A000A88FB98F9093F0028093EF020E851F8568
:1019B00040E050E06AE774E4CE014AD9C8010197DB
:1019C000092E000CAA0BBB0B4E8D5F8D68A179A16F
:1019D00084179507A607B70731F08E8F9F8FA8A3AE
:1019E000B9A3CE01ACD9CE01E1D48111FCCFA7CFF0
:1019F00040E050E563EC77E4CE012AD9C8010296B5
:101A0000092E000CAA0BBB0B4E8D5F8D68A179A12E
:101A100084179507A607B70731F08E8F9F8FA8A36D
:101A2000B9A3CE018CD9CE01C1D48111FCCFCE0196
:101A3000BDD48111FCCF8B819C81FC0165817681B5
:101A400088D81E8A1F8A188E198E1E861F86188AAD
:101A5000198A1E8E1F8E18A219A2FE01EE5BFF4F7F
:101A600010821182128213821AAA1BAA1CAA1DAA12
:101A70001AA21BA21CA21DA280E792E0DF91CF91C7
:101A80001F910F9187C48F929F92AF92BF92CF9276
:101A9000DF92EF92FF92CF93DF93EC016A017B011B
:101AA00020E030E0A901C701B601C4D687FF04C019
:101AB000F7FAF094F7F8F094A70196016EA17FA1D0
:101AC00088A599A5B7D6882309F449C0CEA2DFA27C
:101AD000E8A6F9A65E018EE4A80EB11CA701960146
:101AE00060E074E284E799E4A9D6F501608371832C
:101AF000828393837E01F2E4EF0EF11CF701808173
:101B00009181A281B381181619061A061B063CF5AD
:101B10006AA17BA18CA19DA19B01AC01DED74B01E9
:101B20005C016AA57BA58CA59DA59B01AC011ED679
:101B30009B01AC01C501B40181D6E8D6F7016083F1
:101B4000718382839383CE01DF91CF91FF90EF90D9
:101B5000DF90CF90BF90AF909F908F90F0C8DF91B3
:101B6000CF91FF90EF90DF90CF90BF90AF909F907C
:101B70008F900895362F90E0FC01E851FE4F44917C
:101B8000FC01EE55FE4F2491FC01E45AFE4F949166
:101B9000992309F46CC0442309F455C050E0FA01BC
:101BA0003197E231F10508F04EC08827EE57FF4F1C
:101BB0008F4F0C946516809180008F7707C08091BD
:101BC00080008F7D03C080918000877F809380009C
:101BD0003AC084B58F7702C084B58F7D84BD33C091
:101BE0008091B0008F7703C08091B0008F7D80938B
:101BF000B00029C0809190008F7707C0809190003D
:101C00008F7D03C080919000877F809390001BC0E0
:101C10008091A0008F7707C08091A0008F7D03C0C6
:101C20008091A000877F8093A0000DC0809120014B
:101C30008F7707C0809120018F7D03C080912001A4
:101C4000877F80932001E92FF0E0EE0FFF1FEE5B0E
:101C5000FE4FA591B4919FB7F894311104C08C91B7
:101C60002095282302C0EC912E2B2C939FBF089522
:101C7000CF93DF9390E0FC01EE55FE4F2491FC01E1
:101C8000E45AFE4F8491882361F190E0880F991FF8
:101C9000FC01E85DFE4FC591D491FC01EE5BFE4F67
:101CA000A591B491611109C09FB7F89488812095DE
:101CB00082238883EC912E230BC0623061F49FB79E
:101CC000F8948881322F309583238883EC912E2BD2
:101CD0002C939FBF06C08FB7F894E8812E2B2883E2
:101CE0008FBFDF91CF910895CF93DF93EC016DAF5C
:101CF0006F3F51F0862F61E0BBDF6CAD81E068275C
:101D00008DADDF91CF9136CFDF91CF9108953FB761
:101D1000F8948091EB029091EC02A091ED02B091C9
:101D2000EE0226B5A89B05C02F3F19F00196A11D14
:101D3000B11D3FBFBA2FA92F982F8827820F911D61
:101D4000A11DB11DBC01CD0142E0660F771F881FA8
:101D5000991F4A95D1F708951F920F920FB60F92CF
:101D600011242F933F938F939F93AF93BF938091B1
:101D7000E6029091E702A091E802B091E902309169
:101D8000EA0223E0230F2D3720F40196A11DB11D97
:101D900005C026E8230F0296A11DB11D2093EA027B
:101DA0008093E6029093E702A093E802B093E902E1
:101DB0008091EB029091EC02A091ED02B091EE02C5
:101DC0000196A11DB11D8093EB029093EC02A093AC
:101DD000ED02B093EE02BF91AF919F918F913F9131
:101DE0002F910F900FBE0F901F9018951F920F927A
:101DF0000FB60F9211240BB60F922F933F934F9370
:101E00005F936F937F938F939F93AF93BF93EF9362
:101E1000FF9381E093E00E941A04FF91EF91BF913C
:101E2000AF919F918F917F916F915F914F913F9172
:101E30002F910F900BBE0F900FBE0F901F90189513
:101E40001F920F920FB60F9211240BB60F922F9381
:101E50008F939F93EF93FF93E0911103F0911203FF
:101E60008081E0911703F091180382FD12C09081E8
:101E700080911A038F5F8F7320911B03821751F09B
:101E8000E0911A03F0E0EF5FFC4F958F80931A0307
:101E900001C08081FF91EF919F918F912F910F90C1
:101EA0000BBE0F900FBE0F901F901895DF92EF9210
:101EB000FF920F931F93CF93DF93EC01D62EE42E66
:101EC000F22E8AE092E09983888387E090E005D73C
:101ED0008C0185E0F80111928A95E9F78F2D90E049
:101EE000F8019683858361E08F2DC2DE80E58CBD8D
:101EF0001DBC1C830B8381E08D831E861F86188A80
:101F0000198A1E8E1F8E18A219A21AA21BA21CA229
:101F10001DA280E090E0A0E8BFE38EA39FA3A8A746
:101F2000B9A71AA61BA61CA61DA68EA79FA7A8AB7D
:101F3000B9AB1AAA1BAA1CAA1DAA21E030E03BAF2C
:101F40002AAF2FEF2DAF1EAA1FAA18AE19AEDE8240
:101F5000EF82188619861CAE1A8E1B8E1C8E1D8E63
:101F60001E8A1F8A188E198EFE01EE5BFF4F1082AB
:101F7000118212821382349610821182128213828D
:101F80003496108211821282138234968083918358
:101F9000A283B3831A821A861B861C861D86CE01F5
:101FA0000E94C80340E050E060E87FE3CE01DF918B
:101FB000CF911F910F91FF90EF90DF9029C8CF93A1
:101FC000DF93FC01DB018AE092E09183808312962B
:101FD0008C911297828313968D919C911497948380
:101FE000838315968C911597858316964D915D91F7
:101FF0006D917C91199746835783608771871A96F4
:102000004D915D916D917C911D97428753876487B7
:1020100075871E964D915D916D917C915197468784
:102020005787608B718B52964D915D916D917C912C
:102030005597428B538B648B758B56964D915D9162
:102040006D917C915997468B578B608F718F5A9603
:102050004D915D916D917C915D97428F538F648F0F
:10206000758F5E964D915D916D917C919197468FA4
:10207000578F60A371A392964D915D916D917C9164
:10208000959742A353A364A375A396964D915D9132
:102090006D917C91999746A357A360A771A79A96D3
:1020A0004D915D916D917C919D9742A753A764A737
:1020B00075A79E964D915D916D917C91D19746A7A4
:1020C00057A760AB71ABD2964D915D916D917C91AC
:1020D000D59742AB53AB64AB75ABD6964D915D9142
:1020E0006D917C91D99746AB57AB60AF71AFDA96E3
:1020F0008D919C91DB9793AF82AFDC968C91DC97AE
:1021000084AFDD968C91DD9785AFDE968D919C91A5
:10211000DF9797AF86AFED01C05CDF4F8881998173
:10212000EF01C05CDF4F99838883ED01CE5BDF4F09
:10213000488159816A817B81EF01CE5BDF4F488303
:1021400059836A837B83ED01CA5BDF4F48815981E4
:102150006A817B81EF01CA5BDF4F488359836A83C1
:102160007B83ED01C65BDF4F488159816A817B81AA
:10217000EF01C65BDF4F488359836A837B83A25B91
:10218000BF4F8D919D910D90BC91A02DE25BFF4FB3
:1021900080839183A283B383DF91CF9108950097C9
:1021A00061F0FC0101900020E9F73197AF01481B75
:1021B000590BBC0181E093E0B0CA80E090E0089543
:1021C0000F931F93CF9380E0C0E09091B603C9179F
:1021D00020F5EC2FF0E0EE0FFF1FEE55FC4F0190C5
:1021E000F081E02D068D178D20A131A14685578500
:1021F00060897189041715072607370761F082A9DE
:1022000093A9A4A9B5A9892B8A2B8B2B19F0CF01EF
:102210000E94DF0581E0CF5FD8CFCF911F910F9152
:1022200008953F924F925F926F927F928F929F920A
:10223000AF92BF92CF92DF92EF92FF920F931F93D4
:10224000CF93DF938090B60321EFC22E22E0D22EEF
:10225000C2EAD3E0912C10E000E0F12CE12C8914CB
:1022600091F1F60181919191A191B1916F01A990A4
:10227000B990F5014684578460887188BC01CD010E
:10228000641975098609970997FF07C0909580958D
:10229000709561957F4F8F4F9F4F6BD3F50126A1AE
:1022A00037A140A551A5CAD23B015C01212F302F97
:1022B0004F2D5E2D0ED4181624F4162D072DFA2C52
:1022C000EB2C9394CCCF20E030E0A901612F702F4C
:1022D0008F2D9E2DFED318160CF04AC0312C809104
:1022E000B603381608F044C0C32DD0E0FE01EE0F4F
:1022F000FF1FEE0FFF1FEF50FD4F408051806280A7
:102300007380CC0FDD1FFE01EE55FC4FC080D180E5
:10231000F60186859785A089B189A3019201281BC2
:10232000390B4A0B5B0BCA01B90123D3212F302F84
:102330004F2D5E2D83D24B015C01F601868D978D6A
:10234000A0A1B1A1481659066A067B0639F0468E4F
:10235000578E60A271A2C6010E949F06CE55DC4F27
:10236000B501A401888199810E9428063394B7CFD2
:10237000DF91CF911F910F91FF90EF90DF90CF9061
:10238000BF90AF909F908F907F906F905F904F9095
:102390003F900895CF93DF9302DFEC0186E792E050
:1023A000FEDE8C0F9D1FDF91CF9108950F931F9339
:1023B000CF93DF93EC018AA99BA9ACA9BDA9892B76
:1023C0008A2B8B2B41F0CE010E94DF05882319F068
:1023D000CE010E949F0620E030E0A9016AA17BA106
:1023E0008CA19DA127D2811110C081E00E8D1F8D7F
:1023F00028A139A14E855F85688979890417150759
:102400002607370719F480E001C081E0DF91CF9102
:102410001F910F910895CF93DF93CDB7DEB7A197AA
:102420000FB6F894DEBF0FBECDBF789484B582603E
:1024300084BD84B5816084BD85B5826085BD85B568
:10244000816085BD80916E00816080936E001092E6
:102450008100809181008260809381008091810061
:1024600081608093810080918000816080938000F2
:102470008091B10084608093B1008091B000816050
:102480008093B00080919100826080939100809150
:102490009100816080939100809190008160809391
:1024A00090008091A10082608093A1008091A100A2
:1024B00081608093A1008091A00081608093A00042
:1024C00080912101826080932101809121018160AE
:1024D000809321018091200181608093200180916F
:1024E0007A00846080937A0080917A008260809381
:1024F0007A0080917A00816080937A0080917A00DE
:10250000806880937A001092C1000E94980812E4BB
:102510003AE0C32ED12CE12CF12C80917B00886015
:1025200080937B0010937C0080917A00806480937C
:102530007A0080917A0086FDFCCF8091780020910E
:10254000790090E0922B9250880F991F092E000C71
:10255000AA0BBB0B86569F4EAF4FBF4F8093FD0219
:102560009093FE02A093FF02B09300038090C503F6
:102570009090C603A090C703B090C8038091BA039F
:102580009091BB03FC01658176810E946905F1D1C0
:1025900026E636E646E650E451D120E030E040E859
:1025A00050E49BD220E030E040E05FE396D2AED131
:1025B000442455243201461A570A680A790A40927F
:1025C000CD035092CE036092CF037092D003DC0112
:1025D000CB01880D991DAA1DBB1D8090C50390904D
:1025E000C603A090C703B090C803A5019401281B9F
:1025F000390B4A0B5B0B2093C5033093C603409302
:10260000C7035093C8030DDE8FB7F8948090E6029D
:102610009090E702A090E802B090E9028FBF3AE004
:10262000830E911CA11CB11C2FB7F8948091E60277
:102630009091E702A091E802B091E9022FBF8815BE
:102640009905AA05BB0510F4BBDDEECF60DB8090D9
:102650009E0390909F03A090A003B090A1039B01C4
:10266000AC01281939094A095B0919A25E0181E206
:10267000A80EB11CCA01B901A7019601E8D2605D9C
:10268000F50162935F01211531054105510591F76F
:10269000CF0185DD86E792E082DD39DB60939E0322
:1026A00070939F038093A0039093A1030E9456010F
:1026B00034CFE1E0F3E01382128288EE93E0A0E0F1
:1026C000B0E084839583A683B78324E232E031832C
:1026D000208325EC30E03587248724EC30E03787F1
:1026E000268720EC30E0318B208B21EC30E0338BDF
:1026F000228B22EC30E0358B248B26EC30E0378BBC
:10270000268B118E128E138E148EEFEFF4E013824F
:10271000128284839583A683B78386E392E09183B4
:1027200080832DE248E16AE08DEA94E0BFDB2EE28F
:102730004DE16BE08BE594E0B9DB20E347E26CE030
:1027400089E094E0B3DB2FE247E26DE087EB93E0B2
:10275000ADDB1092B603DBDA60939E0370939F03A8
:102760008093A0039093A10308955058BB27AA27F4
:102770000ED075C166D130F06BD120F031F49F3F9F
:1027800011F41EF45BC10EF4E095E7FB51C1E92F93
:1027900077D180F3BA17620773078407950718F09B
:1027A00071F49EF58FC10EF4E0950B2EBA2FA02D7B
:1027B0000B01B90190010C01CA01A0011124FF27EE
:1027C000591B99F0593F50F4503E68F11A16F040E9
:1027D000A22F232F342F4427585FF3CF46953795E8
:1027E0002795A795F0405395C9F77EF41F16BA0BAD
:1027F000620B730B840BBAF09150A1F0FF0FBB1F5B
:10280000661F771F881FC2F70EC0BA0F621F731FA3
:10281000841F48F4879577956795B795F7959E3F00
:1028200008F0B3CF9395880F08F09927EE0F97958E
:1028300087950895D9D008F481E008950CD00FC190
:1028400007D140F0FED030F021F45F3F19F0F0C026
:10285000511139C1F3C014D198F39923C9F3552309
:10286000B1F3951B550BBB27AA2762177307840783
:1028700038F09F5F5F4F220F331F441FAA1FA9F339
:1028800033D00E2E3AF0E0E830D091505040E6952B
:10289000001CCAF729D0FE2F27D0660F771F881F8C
:1028A000BB1F261737074807AB07B0E809F0BB0B7B
:1028B000802DBF01FF2793585F4F2AF09E3F51059F
:1028C00068F0B6C000C15F3FECF3983EDCF386953C
:1028D00077956795B795F7959F5FC9F7880F911D15
:1028E0009695879597F90895E1E0660F771F881F01
:1028F000BB1F621773078407BA0720F0621B730BB4
:10290000840BBA0BEE1F88F7E095089504D0689405
:10291000B111D9C00895BCD088F09F5790F0B92F5D
:102920009927B751A0F0D1F0660F771F881F991F24
:102930001AF0BA95C9F712C0B13081F0C3D0B1E036
:102940000895C0C0672F782F8827B85F39F0B93F46
:10295000CCF3869577956795B395D9F73EF4909526
:102960008095709561957F4F8F4F9F4F0895E894A4
:1029700009C097FB3EF490958095709561957F4FC7
:102980008F4F9F4F9923A9F0F92F96E9BB27939575
:10299000F695879577956795B795F111F8CFFAF485
:1029A000BB0F11F460FF1BC06F5F7F4F8F4F9F4FB6
:1029B00016C0882311F096E911C0772321F09EE814
:1029C000872F762F05C0662371F096E8862F70E07A
:1029D00060E02AF09A95660F771F881FDAF7880F54
:1029E0009695879597F90895990F0008550FAA0BAA
:1029F000E0E8FEEF16161706E807F907C0F0121612
:102A00001306E407F50798F0621B730B840B950B14
:102A100039F40A2661F0232B242B252B21F4089569
:102A20000A2609F4A140A6958FEF811D811D089506
:102A300097F99F6780E870E060E008959FEF80EC71
:102A4000089500240A941616170618060906089514
:102A500000240A9412161306140605060895092E7A
:102A60000394000C11F4882352F0BB0F40F4BF2BE9
:102A700011F460FF04C06F5F7F4F8F4F9F4F089529
:102A800057FD9058440F551F59F05F3F71F047951F
:102A9000880F97FB991F61F09F3F79F08795089504
:102AA000121613061406551FF2CF4695F1DF08C023
:102AB000161617061806991FF1CF86957105610540
:102AC00008940895E894BB2766277727CB0197F9E8
:102AD00008958ADF08F48FEF08950BD0C0CFB1DFDF
:102AE00028F0B6DF18F0952309F0A2CFA7CF112464
:102AF000EACFC6DFA0F3959FD1F3950F50E0551FA5
:102B0000629FF001729FBB27F00DB11D639FAA2742
:102B1000F00DB11DAA1F649F6627B00DA11D661F91
:102B2000829F2227B00DA11D621F739FB00DA11DB2
:102B3000621F839FA00D611D221F749F3327A00D6C
:102B4000611D231F849F600D211D822F762F6A2F08
:102B500011249F5750408AF0E1F088234AF0EE0F8D
:102B6000FF1FBB1F661F771F881F91505040A9F79A
:102B70009E3F510570F05CCFA6CF5F3FECF3983ECF
:102B8000DCF3869577956795B795F795E7959F5F01
:102B9000C1F7FE2B880F911D9695879597F908959B
:102BA00011F40EF44BCF3EC073DFD0F39923D9F369
:102BB000CEF39F57550B87FF43D00024A0E640EA91
:102BC000900180585695979528F4805C660F771F82
:102BD000881F20F026173707480730F4621B730B55
:102BE000840B202931294A2BA69517940794202578
:102BF00031254A2758F7660F771F881F20F02617C0
:102C00003707480730F4620B730B840B200D311D1E
:102C1000411DA09581F7B901842F9158880F969591
:102C2000879508959F3F31F0915020F487957795CF
:102C30006795B795880F911D9695879597F9089593
:102C400091505040660F771F881FD2F70895A1E278
:102C50001A2EAA1BBB1BFD010DC0AA1FBB1FEE1F16
:102C6000FF1FA217B307E407F50720F0A21BB30B61
:102C7000E40BF50B661F771F881F991F1A9469F7DD
:102C800060957095809590959B01AC01BD01CF0139
:102C90000895052E97FB16F400940FD057FD05D02C
:102CA000D6DF07FC02D046F408C050954095309519
:102CB00021953F4F4F4F5F4F0895909580957095A8
:102CC00061957F4F8F4F9F4F0895EE0FFF1F881F15
:102CD0008BBF0790F691E02D19940F931F93CF931C
:102CE000DF938230910510F482E090E0E0910D05D1
:102CF000F0910E0520E030E0A0E0B0E0309719F14F
:102D0000408151810281138148175907C8F0841707
:102D1000950769F4109731F012960C931297139659
:102D20001C9327C000930D0510930E0522C021159A
:102D3000310519F04217530718F49A01BD01EF014C
:102D4000DF01F801DBCF21153105F9F0281B390B24
:102D50002430310580F48A819B816115710521F051
:102D6000FB019383828304C090930E0580930D052D
:102D7000FE01329644C0FE01E20FF31F819391934E
:102D800022503109398328833AC020910B053091B4
:102D90000C05232B41F42091020230910302309361
:102DA0000C0520930B0520910002309101022115A2
:102DB000310541F42DB73EB7409104025091050210
:102DC000241B350BE0910B05F0910C05E217F3077E
:102DD000A0F42E1B3F0B2817390778F0AC014E5F8B
:102DE0005F4F2417350748F04E0F5F1F50930C05B7
:102DF00040930B058193919302C0E0E0F0E0CF0196
:102E0000DF91CF911F910F910895CF93DF9300979A
:102E100009F481C0FC01329713821282A0910D0542
:102E2000B0910E05109781F420813181820F931F9C
:102E300020910B0530910C052817390751F5F093B7
:102E40000C05E0930B0567C0ED0120E030E0CE17E4
:102E5000DF0740F44A815B819E0141155105F1F085
:102E6000EA01F5CFD383C28340815181840F951F3E
:102E7000C817D90759F488819981840F951F029644
:102E8000918380838A819B8193838283211531057D
:102E900029F4F0930E05E0930D053DC0E901FB8395
:102EA000EA8349915991C40FD51FEC17FD0761F4CE
:102EB00080819181840F951F0296E901998388830F
:102EC000828193819B838A83E0E0F0E012968D916A
:102ED0009C911397009719F0FD01DC01F7CF8D91BC
:102EE0009C9111979D012E5F3F4F820F931F209160
:102EF0000B0530910C052817390769F4309729F430
:102F000010920E0510920D0502C013821282B0932A
:102F10000C05A0930B05DF91CF91089581E090E01F
:082F2000F89400C0F894FFCF03
:102F280000000F05800000000000FC03C8039003A8
:102F380048033003F802D702A30282022C02F401EC
:102F480000000000F40B8D0BB70B410C4A01C60BB7
:102F5800DA0B00000000D901CF01EA01C101C80164
:102F6800C501C2017374617274696E6720736372FC
:102F780069707400486F6D696E67206D6F746F7249
:102F88007300506F73206973206E6F773A2030009A
:0A2F9800484F4D4544000D0A0000AB
:00000001FF
